{
  "_format": "hh-sol-artifact-1",
  "contractName": "Voting",
  "sourceName": "contracts/Voting.sol",
  "abi": [
    {
      "anonymous": false,
      "inputs": [
        {
          "indexed": true,
          "internalType": "address",
          "name": "previousOwner",
          "type": "address"
        },
        {
          "indexed": true,
          "internalType": "address",
          "name": "newOwner",
          "type": "address"
        }
      ],
      "name": "OwnershipTransferred",
      "type": "event"
    },
    {
      "anonymous": false,
      "inputs": [
        {
          "indexed": false,
          "internalType": "uint256",
          "name": "proposalId",
          "type": "uint256"
        }
      ],
      "name": "ProposalRegistered",
      "type": "event"
    },
    {
      "anonymous": false,
      "inputs": [
        {
          "indexed": false,
          "internalType": "address",
          "name": "voter",
          "type": "address"
        },
        {
          "indexed": false,
          "internalType": "uint256",
          "name": "proposalId",
          "type": "uint256"
        }
      ],
      "name": "Voted",
      "type": "event"
    },
    {
      "anonymous": false,
      "inputs": [
        {
          "indexed": false,
          "internalType": "address",
          "name": "voterAddress",
          "type": "address"
        }
      ],
      "name": "VoterRegistered",
      "type": "event"
    },
    {
      "anonymous": false,
      "inputs": [
        {
          "indexed": false,
          "internalType": "enum Voting.WorkflowStatus",
          "name": "previousStatus",
          "type": "uint8"
        },
        {
          "indexed": false,
          "internalType": "enum Voting.WorkflowStatus",
          "name": "newStatus",
          "type": "uint8"
        }
      ],
      "name": "WorkflowStatusChange",
      "type": "event"
    },
    {
      "stateMutability": "payable",
      "type": "fallback"
    },
    {
      "inputs": [
        {
          "internalType": "string",
          "name": "_desc",
          "type": "string"
        }
      ],
      "name": "addProposal",
      "outputs": [],
      "stateMutability": "nonpayable",
      "type": "function"
    },
    {
      "inputs": [
        {
          "internalType": "address",
          "name": "_addr",
          "type": "address"
        }
      ],
      "name": "addVoter",
      "outputs": [],
      "stateMutability": "nonpayable",
      "type": "function"
    },
    {
      "inputs": [],
      "name": "endProposalsRegistering",
      "outputs": [],
      "stateMutability": "nonpayable",
      "type": "function"
    },
    {
      "inputs": [
        {
          "internalType": "uint256",
          "name": "_id",
          "type": "uint256"
        }
      ],
      "name": "getOneProposal",
      "outputs": [
        {
          "components": [
            {
              "internalType": "string",
              "name": "description",
              "type": "string"
            },
            {
              "internalType": "uint256",
              "name": "voteCount",
              "type": "uint256"
            }
          ],
          "internalType": "struct Voting.Proposal",
          "name": "",
          "type": "tuple"
        }
      ],
      "stateMutability": "view",
      "type": "function"
    },
    {
      "inputs": [
        {
          "internalType": "address",
          "name": "_addr",
          "type": "address"
        }
      ],
      "name": "getVoter",
      "outputs": [
        {
          "components": [
            {
              "internalType": "bool",
              "name": "isRegistered",
              "type": "bool"
            },
            {
              "internalType": "bool",
              "name": "hasVoted",
              "type": "bool"
            },
            {
              "internalType": "uint256",
              "name": "votedProposalId",
              "type": "uint256"
            }
          ],
          "internalType": "struct Voting.Voter",
          "name": "",
          "type": "tuple"
        }
      ],
      "stateMutability": "view",
      "type": "function"
    },
    {
      "inputs": [],
      "name": "owner",
      "outputs": [
        {
          "internalType": "address",
          "name": "",
          "type": "address"
        }
      ],
      "stateMutability": "view",
      "type": "function"
    },
    {
      "inputs": [],
      "name": "renounceOwnership",
      "outputs": [],
      "stateMutability": "nonpayable",
      "type": "function"
    },
    {
      "inputs": [
        {
          "internalType": "uint256",
          "name": "_id",
          "type": "uint256"
        }
      ],
      "name": "setVote",
      "outputs": [],
      "stateMutability": "nonpayable",
      "type": "function"
    },
    {
      "inputs": [],
      "name": "startProposalsRegistering",
      "outputs": [],
      "stateMutability": "nonpayable",
      "type": "function"
    },
    {
      "inputs": [],
      "name": "startVotingSession",
      "outputs": [],
      "stateMutability": "nonpayable",
      "type": "function"
    },
    {
      "inputs": [],
      "name": "tallyVotes",
      "outputs": [
        {
          "internalType": "uint256",
          "name": "",
          "type": "uint256"
        }
      ],
      "stateMutability": "nonpayable",
      "type": "function"
    },
    {
      "inputs": [
        {
          "internalType": "address",
          "name": "newOwner",
          "type": "address"
        }
      ],
      "name": "transferOwnership",
      "outputs": [],
      "stateMutability": "nonpayable",
      "type": "function"
    },
    {
      "inputs": [],
      "name": "winningProposalID",
      "outputs": [
        {
          "internalType": "uint256",
          "name": "",
          "type": "uint256"
        }
      ],
      "stateMutability": "view",
      "type": "function"
    },
    {
      "inputs": [],
      "name": "workflowStatus",
      "outputs": [
        {
          "internalType": "enum Voting.WorkflowStatus",
          "name": "",
          "type": "uint8"
        }
      ],
      "stateMutability": "view",
      "type": "function"
    },
    {
      "stateMutability": "payable",
      "type": "receive"
    }
  ],
  "bytecode": "0x608060405234801561001057600080fd5b5061001a3361001f565b61006f565b600080546001600160a01b038381166001600160a01b0319831681178455604051919092169283917f8be0079c531659141344cd1fd0a4f28419497f9722a3daafe3b4186f6b6457e09190a35050565b6112318061007e6000396000f3fe6080604052600436106100d55760003560e01c8063bdc0143111610079578063d4f50f9811610056578063d4f50f9814610217578063ee74c6781461025d578063f2fde38b14610272578063f4ab9adf1461029257005b8063bdc01431146101d7578063c7038a4e146101ed578063c88af42f1461020257005b8063715018a6116100b2578063715018a6146101465780638da5cb5b1461015b578063a1edffa214610183578063a2788cce146101aa57005b8063230796ae146100de5780632fdae3c5146100fe578063378a21781461011e57005b366100dc57005b005b3480156100ea57600080fd5b506100dc6100f9366004610dfa565b6102b2565b34801561010a57600080fd5b506100dc610119366004610e13565b6104b7565b34801561012a57600080fd5b506101336106d4565b6040519081526020015b60405180910390f35b34801561015257600080fd5b506100dc610753565b34801561016757600080fd5b506000546040516001600160a01b03909116815260200161013d565b34801561018f57600080fd5b5060025461019d9060ff1681565b60405161013d9190610ebd565b3480156101b657600080fd5b506101ca6101c5366004610dfa565b610767565b60405161013d9190610ed1565b3480156101e357600080fd5b5061013360015481565b3480156101f957600080fd5b506100dc61087a565b34801561020e57600080fd5b506100dc6109af565b34801561022357600080fd5b50610237610232366004610f32565b610a64565b60408051825115158152602080840151151590820152918101519082015260600161013d565b34801561026957600080fd5b506100dc610af9565b34801561027e57600080fd5b506100dc61028d366004610f32565b610ba7565b34801561029e57600080fd5b506100dc6102ad366004610f32565b610c20565b3360009081526004602052604090205460ff166102ea5760405162461bcd60e51b81526004016102e190610f62565b60405180910390fd5b600360025460ff16600481111561030357610303610e85565b146103205760405162461bcd60e51b81526004016102e190610f99565b33600090815260046020526040902054610100900460ff1615156001036103825760405162461bcd60e51b8152602060048201526016602482015275165bdd481a185d9948185b1c9958591e481d9bdd195960521b60448201526064016102e1565b60035481106103c85760405162461bcd60e51b8152602060048201526012602482015271141c9bdc1bdcd85b081b9bdd08199bdd5b9960721b60448201526064016102e1565b33600090815260046020526040902060018101829055805461ff00191661010017905560038054829081106103ff576103ff610fda565b60009182526020822060016002909202010180549161041d83611006565b919050555060036001548154811061043757610437610fda565b9060005260206000209060020201600101546003828154811061045c5761045c610fda565b906000526020600020906002020160010154111561047a5760018190555b60408051338152602081018390527f4d99b957a2bc29a30ebd96a7be8e68fe50a3c701db28a91436490b7d53870ca491015b60405180910390a150565b3360009081526004602052604090205460ff166104e65760405162461bcd60e51b81526004016102e190610f62565b600160025460ff1660048111156104ff576104ff610e85565b1461054c5760405162461bcd60e51b815260206004820152601d60248201527f50726f706f73616c7320617265206e6f7420616c6c6f7765642079657400000060448201526064016102e1565b60405160200161056790602080825260009082015260400190565b60405160208183030381529060405280519060200120828260405160200161059092919061101f565b60405160208183030381529060405280519060200120036105f35760405162461bcd60e51b815260206004820152601e60248201527f456d7074792070726f706f73616c20617265206e6f7420616c6c6f776564000060448201526064016102e1565b60408051808201909152606081526000602082015282828080601f0160208091040260200160405190810160405280939291908181526020018383808284376000920182905250938552505060038054600181018255925250815182916002027fc2575a0e9e593c00f959f8c92f12db2869c3395a3b0502d05e2516446f71f85b0190819061068290826110ed565b50602091909101516001918201556003547f92e393e9b54e2f801d3ea4beb0c5e71a21cc34a5d34b77d0fb8a3aa1650dc18f916106be916111ad565b60405190815260200160405180910390a1505050565b60006106de610d50565b600360025460ff1660048111156106f7576106f7610e85565b146107145760405162461bcd60e51b81526004016102e190610f99565b6002805460ff191660049081179091556040516000805160206111dc8339815191529161074491600391906111c0565b60405180910390a15060015490565b61075b610d50565b6107656000610daa565b565b6040805180820190915260608152600060208201523360009081526004602052604090205460ff166107ab5760405162461bcd60e51b81526004016102e190610f62565b600382815481106107be576107be610fda565b90600052602060002090600202016040518060400160405290816000820180546107e790611064565b80601f016020809104026020016040519081016040528092919081815260200182805461081390611064565b80156108605780601f1061083557610100808354040283529160200191610860565b820191906000526020600020905b81548152906001019060200180831161084357829003601f168201915b505050505081526020016001820154815250509050919050565b610882610d50565b600060025460ff16600481111561089b5761089b610e85565b146108fa5760405162461bcd60e51b815260206004820152602960248201527f5265676973746572696e672070726f706f73616c732063616e742062652073746044820152686172746564206e6f7760b81b60648201526084016102e1565b6002805460ff19166001908117825560408051808201825260608152600060208083018290528351808501909452600784526647454e4553495360c81b908401529181526003805493840181559091528051909283927fc2575a0e9e593c00f959f8c92f12db2869c3395a3b0502d05e2516446f71f85b91020190819061098190826110ed565b506020820151816001015550506000805160206111dc833981519152600060016040516104ac9291906111c0565b6109b7610d50565b600160025460ff1660048111156109d0576109d0610e85565b14610a2e5760405162461bcd60e51b815260206004820152602860248201527f5265676973746572696e672070726f706f73616c7320686176656e74207374616044820152671c9d1959081e595d60c21b60648201526084016102e1565b6002805460ff1916811781556040516000805160206111dc83398151915291610a5a91600191906111c0565b60405180910390a1565b604080516060810182526000808252602080830182905282840182905233825260049052919091205460ff16610aac5760405162461bcd60e51b81526004016102e190610f62565b506001600160a01b03166000908152600460209081526040918290208251606081018452815460ff8082161515835261010090910416151592810192909252600101549181019190915290565b610b01610d50565b6002805460ff166004811115610b1957610b19610e85565b14610b7a5760405162461bcd60e51b815260206004820152602b60248201527f5265676973746572696e672070726f706f73616c73207068617365206973206e60448201526a1bdd08199a5b9a5cda195960aa1b60648201526084016102e1565b6002805460ff1916600390811782556040516000805160206111dc83398151915292610a5a9290916111c0565b610baf610d50565b6001600160a01b038116610c145760405162461bcd60e51b815260206004820152602660248201527f4f776e61626c653a206e6577206f776e657220697320746865207a65726f206160448201526564647265737360d01b60648201526084016102e1565b610c1d81610daa565b50565b610c28610d50565b600060025460ff166004811115610c4157610c41610e85565b14610c9a5760405162461bcd60e51b815260206004820152602360248201527f566f7465727320726567697374726174696f6e206973206e6f74206f70656e206044820152621e595d60ea1b60648201526084016102e1565b6001600160a01b03811660009081526004602052604090205460ff161515600103610cfc5760405162461bcd60e51b8152602060048201526012602482015271105b1c9958591e481c9959da5cdd195c995960721b60448201526064016102e1565b6001600160a01b038116600081815260046020908152604091829020805460ff1916600117905590519182527fb6be2187d059cc2a55fe29e0e503b566e1e0f8c8780096e185429350acffd3dd91016104ac565b6000546001600160a01b031633146107655760405162461bcd60e51b815260206004820181905260248201527f4f776e61626c653a2063616c6c6572206973206e6f7420746865206f776e657260448201526064016102e1565b600080546001600160a01b038381166001600160a01b0319831681178455604051919092169283917f8be0079c531659141344cd1fd0a4f28419497f9722a3daafe3b4186f6b6457e09190a35050565b600060208284031215610e0c57600080fd5b5035919050565b60008060208385031215610e2657600080fd5b823567ffffffffffffffff80821115610e3e57600080fd5b818501915085601f830112610e5257600080fd5b813581811115610e6157600080fd5b866020828501011115610e7357600080fd5b60209290920196919550909350505050565b634e487b7160e01b600052602160045260246000fd5b60058110610eb957634e487b7160e01b600052602160045260246000fd5b9052565b60208101610ecb8284610e9b565b92915050565b600060208083528351604082850152805180606086015260005b81811015610f0757828101840151868201608001528301610eeb565b506000608082870101528286015160408601526080601f19601f830116860101935050505092915050565b600060208284031215610f4457600080fd5b81356001600160a01b0381168114610f5b57600080fd5b9392505050565b6020808252601f908201527f596f7520617265206e6f74206120726573676973746572656420766f74657200604082015260600190565b60208082526021908201527f566f74696e672073657373696f6e20686176656e7420737461727465642079656040820152601d60fa1b606082015260800190565b634e487b7160e01b600052603260045260246000fd5b634e487b7160e01b600052601160045260246000fd5b60006001820161101857611018610ff0565b5060010190565b60208152816020820152818360408301376000818301604090810191909152601f909201601f19160101919050565b634e487b7160e01b600052604160045260246000fd5b600181811c9082168061107857607f821691505b60208210810361109857634e487b7160e01b600052602260045260246000fd5b50919050565b601f8211156110e857600081815260208120601f850160051c810160208610156110c55750805b601f850160051c820191505b818110156110e4578281556001016110d1565b5050505b505050565b815167ffffffffffffffff8111156111075761110761104e565b61111b816111158454611064565b8461109e565b602080601f83116001811461115057600084156111385750858301515b600019600386901b1c1916600185901b1785556110e4565b600085815260208120601f198616915b8281101561117f57888601518255948401946001909101908401611160565b508582101561119d5787850151600019600388901b60f8161c191681555b5050505050600190811b01905550565b81810381811115610ecb57610ecb610ff0565b604081016111ce8285610e9b565b610f5b6020830184610e9b56fe0a97a4ee45751e2abf3e4fc8946939630b11b371ea8ae39ccdc3056e98f5cc3fa2646970667358221220e1b17461f1c0cea1e01f123339b5c37a2986a3762f77878d9ee457036df5e67064736f6c63430008120033",
  "linkReferences": {},
  "deployedLinkReferences": {}
}