{
  "_format": "hh-sol-artifact-1",
  "contractName": "Voting",
  "sourceName": "contracts/Voting.sol",
  "abi": [
    {
      "anonymous": false,
      "inputs": [
        {
          "indexed": true,
          "internalType": "address",
          "name": "previousOwner",
          "type": "address"
        },
        {
          "indexed": true,
          "internalType": "address",
          "name": "newOwner",
          "type": "address"
        }
      ],
      "name": "OwnershipTransferred",
      "type": "event"
    },
    {
      "anonymous": false,
      "inputs": [
        {
          "indexed": false,
          "internalType": "uint256",
          "name": "proposalId",
          "type": "uint256"
        }
      ],
      "name": "ProposalRegistered",
      "type": "event"
    },
    {
      "anonymous": false,
      "inputs": [
        {
          "indexed": false,
          "internalType": "address",
          "name": "voter",
          "type": "address"
        },
        {
          "indexed": false,
          "internalType": "uint256",
          "name": "proposalId",
          "type": "uint256"
        }
      ],
      "name": "Voted",
      "type": "event"
    },
    {
      "anonymous": false,
      "inputs": [
        {
          "indexed": false,
          "internalType": "address",
          "name": "voterAddress",
          "type": "address"
        }
      ],
      "name": "VoterRegistered",
      "type": "event"
    },
    {
      "anonymous": false,
      "inputs": [
        {
          "indexed": false,
          "internalType": "enum Voting.WorkflowStatus",
          "name": "previousStatus",
          "type": "uint8"
        },
        {
          "indexed": false,
          "internalType": "enum Voting.WorkflowStatus",
          "name": "newStatus",
          "type": "uint8"
        }
      ],
      "name": "WorkflowStatusChange",
      "type": "event"
    },
    {
      "inputs": [
        {
          "internalType": "string",
          "name": "_desc",
          "type": "string"
        }
      ],
      "name": "addProposal",
      "outputs": [],
      "stateMutability": "nonpayable",
      "type": "function"
    },
    {
      "inputs": [
        {
          "internalType": "address",
          "name": "_addr",
          "type": "address"
        }
      ],
      "name": "addVoter",
      "outputs": [],
      "stateMutability": "nonpayable",
      "type": "function"
    },
    {
      "inputs": [],
      "name": "endProposalsRegistering",
      "outputs": [],
      "stateMutability": "nonpayable",
      "type": "function"
    },
    {
      "inputs": [
        {
          "internalType": "uint256",
          "name": "_id",
          "type": "uint256"
        }
      ],
      "name": "getOneProposal",
      "outputs": [
        {
          "components": [
            {
              "internalType": "string",
              "name": "description",
              "type": "string"
            },
            {
              "internalType": "uint256",
              "name": "voteCount",
              "type": "uint256"
            }
          ],
          "internalType": "struct Voting.Proposal",
          "name": "",
          "type": "tuple"
        }
      ],
      "stateMutability": "view",
      "type": "function"
    },
    {
      "inputs": [
        {
          "internalType": "address",
          "name": "_addr",
          "type": "address"
        }
      ],
      "name": "getVoter",
      "outputs": [
        {
          "components": [
            {
              "internalType": "bool",
              "name": "isRegistered",
              "type": "bool"
            },
            {
              "internalType": "bool",
              "name": "hasVoted",
              "type": "bool"
            },
            {
              "internalType": "uint256",
              "name": "votedProposalId",
              "type": "uint256"
            }
          ],
          "internalType": "struct Voting.Voter",
          "name": "",
          "type": "tuple"
        }
      ],
      "stateMutability": "view",
      "type": "function"
    },
    {
      "inputs": [],
      "name": "owner",
      "outputs": [
        {
          "internalType": "address",
          "name": "",
          "type": "address"
        }
      ],
      "stateMutability": "view",
      "type": "function"
    },
    {
      "inputs": [],
      "name": "renounceOwnership",
      "outputs": [],
      "stateMutability": "nonpayable",
      "type": "function"
    },
    {
      "inputs": [
        {
          "internalType": "uint256",
          "name": "_id",
          "type": "uint256"
        }
      ],
      "name": "setVote",
      "outputs": [],
      "stateMutability": "nonpayable",
      "type": "function"
    },
    {
      "inputs": [],
      "name": "startProposalsRegistering",
      "outputs": [],
      "stateMutability": "nonpayable",
      "type": "function"
    },
    {
      "inputs": [],
      "name": "startVotingSession",
      "outputs": [],
      "stateMutability": "nonpayable",
      "type": "function"
    },
    {
      "inputs": [],
      "name": "tallyVotes",
      "outputs": [
        {
          "internalType": "uint256",
          "name": "",
          "type": "uint256"
        }
      ],
      "stateMutability": "nonpayable",
      "type": "function"
    },
    {
      "inputs": [
        {
          "internalType": "address",
          "name": "newOwner",
          "type": "address"
        }
      ],
      "name": "transferOwnership",
      "outputs": [],
      "stateMutability": "nonpayable",
      "type": "function"
    },
    {
      "inputs": [],
      "name": "winningProposalID",
      "outputs": [
        {
          "internalType": "uint256",
          "name": "",
          "type": "uint256"
        }
      ],
      "stateMutability": "view",
      "type": "function"
    },
    {
      "inputs": [],
      "name": "workflowStatus",
      "outputs": [
        {
          "internalType": "enum Voting.WorkflowStatus",
          "name": "",
          "type": "uint8"
        }
      ],
      "stateMutability": "view",
      "type": "function"
    }
  ],
  "bytecode": "0x608060405234801561001057600080fd5b5061001a3361001f565b61006f565b600080546001600160a01b038381166001600160a01b0319831681178455604051919092169283917f8be0079c531659141344cd1fd0a4f28419497f9722a3daafe3b4186f6b6457e09190a35050565b61118e8061007e6000396000f3fe608060405234801561001057600080fd5b50600436106100ea5760003560e01c8063bdc014311161008c578063d4f50f9811610066578063d4f50f98146101a8578063ee74c678146101e1578063f2fde38b146101e9578063f4ab9adf146101fc57600080fd5b8063bdc014311461018f578063c7038a4e14610198578063c88af42f146101a057600080fd5b8063715018a6116100c8578063715018a6146101325780638da5cb5b1461013a578063a1edffa214610155578063a2788cce1461016f57600080fd5b8063230796ae146100ef5780632fdae3c514610104578063378a217814610117575b600080fd5b6101026100fd366004610d57565b61020f565b005b610102610112366004610d70565b610414565b61011f610631565b6040519081526020015b60405180910390f35b6101026106b0565b6000546040516001600160a01b039091168152602001610129565b6002546101629060ff1681565b6040516101299190610e1a565b61018261017d366004610d57565b6106c4565b6040516101299190610e2e565b61011f60015481565b6101026107d7565b61010261090c565b6101bb6101b6366004610e8f565b6109c1565b604080518251151581526020808401511515908201529181015190820152606001610129565b610102610a56565b6101026101f7366004610e8f565b610b04565b61010261020a366004610e8f565b610b7d565b3360009081526004602052604090205460ff166102475760405162461bcd60e51b815260040161023e90610ebf565b60405180910390fd5b600360025460ff16600481111561026057610260610de2565b1461027d5760405162461bcd60e51b815260040161023e90610ef6565b33600090815260046020526040902054610100900460ff1615156001036102df5760405162461bcd60e51b8152602060048201526016602482015275165bdd481a185d9948185b1c9958591e481d9bdd195960521b604482015260640161023e565b60035481106103255760405162461bcd60e51b8152602060048201526012602482015271141c9bdc1bdcd85b081b9bdd08199bdd5b9960721b604482015260640161023e565b33600090815260046020526040902060018101829055805461ff001916610100179055600380548290811061035c5761035c610f37565b60009182526020822060016002909202010180549161037a83610f63565b919050555060036001548154811061039457610394610f37565b906000526020600020906002020160010154600382815481106103b9576103b9610f37565b90600052602060002090600202016001015411156103d75760018190555b60408051338152602081018390527f4d99b957a2bc29a30ebd96a7be8e68fe50a3c701db28a91436490b7d53870ca491015b60405180910390a150565b3360009081526004602052604090205460ff166104435760405162461bcd60e51b815260040161023e90610ebf565b600160025460ff16600481111561045c5761045c610de2565b146104a95760405162461bcd60e51b815260206004820152601d60248201527f50726f706f73616c7320617265206e6f7420616c6c6f77656420796574000000604482015260640161023e565b6040516020016104c490602080825260009082015260400190565b6040516020818303038152906040528051906020012082826040516020016104ed929190610f7c565b60405160208183030381529060405280519060200120036105505760405162461bcd60e51b815260206004820152601e60248201527f456d7074792070726f706f73616c20617265206e6f7420616c6c6f7765640000604482015260640161023e565b60408051808201909152606081526000602082015282828080601f0160208091040260200160405190810160405280939291908181526020018383808284376000920182905250938552505060038054600181018255925250815182916002027fc2575a0e9e593c00f959f8c92f12db2869c3395a3b0502d05e2516446f71f85b019081906105df908261104a565b50602091909101516001918201556003547f92e393e9b54e2f801d3ea4beb0c5e71a21cc34a5d34b77d0fb8a3aa1650dc18f9161061b9161110a565b60405190815260200160405180910390a1505050565b600061063b610cad565b600360025460ff16600481111561065457610654610de2565b146106715760405162461bcd60e51b815260040161023e90610ef6565b6002805460ff19166004908117909155604051600080516020611139833981519152916106a1916003919061111d565b60405180910390a15060015490565b6106b8610cad565b6106c26000610d07565b565b6040805180820190915260608152600060208201523360009081526004602052604090205460ff166107085760405162461bcd60e51b815260040161023e90610ebf565b6003828154811061071b5761071b610f37565b906000526020600020906002020160405180604001604052908160008201805461074490610fc1565b80601f016020809104026020016040519081016040528092919081815260200182805461077090610fc1565b80156107bd5780601f10610792576101008083540402835291602001916107bd565b820191906000526020600020905b8154815290600101906020018083116107a057829003601f168201915b505050505081526020016001820154815250509050919050565b6107df610cad565b600060025460ff1660048111156107f8576107f8610de2565b146108575760405162461bcd60e51b815260206004820152602960248201527f5265676973746572696e672070726f706f73616c732063616e742062652073746044820152686172746564206e6f7760b81b606482015260840161023e565b6002805460ff19166001908117825560408051808201825260608152600060208083018290528351808501909452600784526647454e4553495360c81b908401529181526003805493840181559091528051909283927fc2575a0e9e593c00f959f8c92f12db2869c3395a3b0502d05e2516446f71f85b9102019081906108de908261104a565b506020820151816001015550506000805160206111398339815191526000600160405161040992919061111d565b610914610cad565b600160025460ff16600481111561092d5761092d610de2565b1461098b5760405162461bcd60e51b815260206004820152602860248201527f5265676973746572696e672070726f706f73616c7320686176656e74207374616044820152671c9d1959081e595d60c21b606482015260840161023e565b6002805460ff191681178155604051600080516020611139833981519152916109b7916001919061111d565b60405180910390a1565b604080516060810182526000808252602080830182905282840182905233825260049052919091205460ff16610a095760405162461bcd60e51b815260040161023e90610ebf565b506001600160a01b03166000908152600460209081526040918290208251606081018452815460ff8082161515835261010090910416151592810192909252600101549181019190915290565b610a5e610cad565b6002805460ff166004811115610a7657610a76610de2565b14610ad75760405162461bcd60e51b815260206004820152602b60248201527f5265676973746572696e672070726f706f73616c73207068617365206973206e60448201526a1bdd08199a5b9a5cda195960aa1b606482015260840161023e565b6002805460ff191660039081178255604051600080516020611139833981519152926109b792909161111d565b610b0c610cad565b6001600160a01b038116610b715760405162461bcd60e51b815260206004820152602660248201527f4f776e61626c653a206e6577206f776e657220697320746865207a65726f206160448201526564647265737360d01b606482015260840161023e565b610b7a81610d07565b50565b610b85610cad565b600060025460ff166004811115610b9e57610b9e610de2565b14610bf75760405162461bcd60e51b815260206004820152602360248201527f566f7465727320726567697374726174696f6e206973206e6f74206f70656e206044820152621e595d60ea1b606482015260840161023e565b6001600160a01b03811660009081526004602052604090205460ff161515600103610c595760405162461bcd60e51b8152602060048201526012602482015271105b1c9958591e481c9959da5cdd195c995960721b604482015260640161023e565b6001600160a01b038116600081815260046020908152604091829020805460ff1916600117905590519182527fb6be2187d059cc2a55fe29e0e503b566e1e0f8c8780096e185429350acffd3dd9101610409565b6000546001600160a01b031633146106c25760405162461bcd60e51b815260206004820181905260248201527f4f776e61626c653a2063616c6c6572206973206e6f7420746865206f776e6572604482015260640161023e565b600080546001600160a01b038381166001600160a01b0319831681178455604051919092169283917f8be0079c531659141344cd1fd0a4f28419497f9722a3daafe3b4186f6b6457e09190a35050565b600060208284031215610d6957600080fd5b5035919050565b60008060208385031215610d8357600080fd5b823567ffffffffffffffff80821115610d9b57600080fd5b818501915085601f830112610daf57600080fd5b813581811115610dbe57600080fd5b866020828501011115610dd057600080fd5b60209290920196919550909350505050565b634e487b7160e01b600052602160045260246000fd5b60058110610e1657634e487b7160e01b600052602160045260246000fd5b9052565b60208101610e288284610df8565b92915050565b600060208083528351604082850152805180606086015260005b81811015610e6457828101840151868201608001528301610e48565b506000608082870101528286015160408601526080601f19601f830116860101935050505092915050565b600060208284031215610ea157600080fd5b81356001600160a01b0381168114610eb857600080fd5b9392505050565b6020808252601f908201527f596f7520617265206e6f74206120726573676973746572656420766f74657200604082015260600190565b60208082526021908201527f566f74696e672073657373696f6e20686176656e7420737461727465642079656040820152601d60fa1b606082015260800190565b634e487b7160e01b600052603260045260246000fd5b634e487b7160e01b600052601160045260246000fd5b600060018201610f7557610f75610f4d565b5060010190565b60208152816020820152818360408301376000818301604090810191909152601f909201601f19160101919050565b634e487b7160e01b600052604160045260246000fd5b600181811c90821680610fd557607f821691505b602082108103610ff557634e487b7160e01b600052602260045260246000fd5b50919050565b601f82111561104557600081815260208120601f850160051c810160208610156110225750805b601f850160051c820191505b818110156110415782815560010161102e565b5050505b505050565b815167ffffffffffffffff81111561106457611064610fab565b611078816110728454610fc1565b84610ffb565b602080601f8311600181146110ad57600084156110955750858301515b600019600386901b1c1916600185901b178555611041565b600085815260208120601f198616915b828110156110dc578886015182559484019460019091019084016110bd565b50858210156110fa5787850151600019600388901b60f8161c191681555b5050505050600190811b01905550565b81810381811115610e2857610e28610f4d565b6040810161112b8285610df8565b610eb86020830184610df856fe0a97a4ee45751e2abf3e4fc8946939630b11b371ea8ae39ccdc3056e98f5cc3fa26469706673582212200953928b712a63beb30d1bef2c0e50547b4221301325b249c86b3c404d3fc01e64736f6c63430008120033",
  "linkReferences": {},
  "deployedLinkReferences": {}
}